:100000000C9434000C943E000C943E000C943E0082
:100010000C943E000C943E000C943E000C943E0068
:100020000C943E000C943E000C943E000C943E0058
:100030000C943E000C943E000C943E000C943E0048
:100040000C943E000C943E000C943E000C943E0038
:100050000C943E000C943E000C943E000C943E0028
:100060000C943E000C943E0011241FBECFEFD8E04C
:10007000DEBFCDBF0E9447000C9460000C940000CE
:1000800084B1836084B915B8089585B908950E9434
:10009000400091E082E095B92FEF33EC49E0215028
:1000A00030404040E1F700C0000085B92FEF35EA4D
:1000B0004EE0215030404040E1F700C00000EBCF5F
:0400C000F894FFCFE2
:00000001FF
