:100000000C9434000C9451000C9451000C94510049
:100010000C9451000C9451000C9451000C9451001C
:100020000C9451000C9451000C9451000C948F00CE
:100030000C9451000C9451000C9451000C945100FC
:100040000C9451000C9451000C9451000C945100EC
:100050000C9451000C9451000C9451000C945100DC
:100060000C9451000C94510011241FBECFEFD8E026
:10007000DEBFCDBF11E0A0E0B1E0E0E8F1E002C0FA
:1000800005900D92A030B107D9F721E0A0E0B1E0D2
:1000900001C01D92A030B207E1F70E94B4000C9499
:1000A000BE000C9400001092C50087E68093C40047
:1000B00088E08093C10086E08093C200089590910B
:1000C000C00095FFFCCF8093C6000895209A289821
:1000D0000895E1E8F0E08081886080838081846019
:1000E00080838081816080838AE698E19093890093
:1000F00080938800EFE6F0E080818260808308953D
:1001000095B181E0892785B92FEF83EC99E02150E3
:1001100080409040E1F700C00000089508951F92CC
:100120000F920FB60F9211242F933F934F935F932B
:100130006F937F938F939F93AF93BF93EF93FF93AF
:1001400080E30E945F00FF91EF91BF91AF919F917B
:100150008F917F916F915F914F913F912F910F9070
:100160000FBE0F901F9018950E9466000E945300CA
:100170000E94690078940E948000FDCFF894FFCF20
:00000001FF
